:020000040800F2
:10000000E8040020010100086D110008170D000828
:1000100069110008890B0008251B0008000000007A
:10002000000000000000000000000000D5150008DE
:10003000B30B00080000000019120008E9160008C0
:100040001B0100081B0100081B0100081B01000820
:100050001B0100081B0100081B0100081B01000810
:100060001B0100081B0100081B0100081B01000800
:100070001B0100081B0100081B0100081B010008F0
:100080001B0100081B0100081B0100081B010008E0
:100090001B0100081B0100081B0100081B010008D0
:1000A0001B0100081B0100081B0100081B010008C0
:1000B0001B0100081B0100081B0100081B010008B0
:1000C0001B0100081B0100081B0100081B010008A0
:1000D0001B0100081B0100081B0100081B01000890
:1000E0001B0100081B0100081B010008DFF80CD0F1
:1000F00000F0F2FB00480047412B0008E804002014
:100100000648804706480047FEE7FEE7FEE7FEE7B1
:10011000FEE7FEE7FEE7FEE7FEE7FEE7ED16000876
:10012000ED000008F0B480EA0102D40F4200B2EB07
:10013000410F02D20246084611464A0042D0C30D82
:10014000DDB2C1F3C752AD1A202D35DAC1F3160165
:1001500041F4000204B15242C5F1200602FA06F150
:100160002A411044B3EBD05F23D0C4B1012DA0EBE2
:10017000C35009DCF0BC4FF0004202EAC352DBB2CC
:1001800000F5000000F0D8B9400000F1807000EBED
:10019000C350A0F1807040EAD170490009E04908DD
:1001A00041EAC071A0EBC35000F50000400800EB2D
:1001B000C350F0BC00F0B7B96142012202EB41012B
:1001C000001BF6E7F0BC704781F00041AAE780F021
:1001D0000040A7E780EA010210B502F000434000AA
:1001E00022D04A001FD0010E01EB1261C0F356006D
:1001F000C2F3560240F4000042F40002A0FB0220C9
:1002000000047F39140400D0401C50EA124001D48D
:100210004000491EC2B20C0604EBD010401C40083E
:10022000802A02D003E0002010BD20F00100002948
:1002300000DA0020184310BD30B480EA010202F059
:10024000004530F0004221F0004013D090B1C30DC2
:10025000D40DC2F31601C0F31600E41A41F40001F4
:1002600040F400027D34914201D3641C00E0490057
:10027000002C02DA30BC002070474FF4000000234D
:10028000914201D3891A034340084FEA4101F7D153
:1002900051B1914202D14FF0004105E002D24FF03E
:1002A000010101E06FF0010103EBC450284430BCB0
:1002B00000F039B92DE9FE4F81EA030404F000444F
:1002C00021F0004100944FF0000B23F0004350EA6E
:1002D00001045ED052EA03045BD0C3F30A54C1F3B5
:1002E0000A552C44A4F2F3340194A0FB0254C1F348
:1002F000130141F48011C3F3130343F4801301FB92
:10030000024400FB034E840A970A44EA815447EAF8
:100310008357A4FB076802958D0A05FB07854FEA02
:10032000932C04FB0C542705029D4FEA065847EA1C
:100330001637B5EB08056EEB070C870E920E47EAF1
:10034000811742EA8312A7FB0201B6EB0B0164EBB3
:1003500000042B0D43EA0C335E1844EB1C50DA46C4
:100360005146E7FB0201C5F313044FEA0B3343EA9E
:1003700014534FEA0432019C43EA0603A4F10C042F
:100380000294009CCDE900B400F013F903B0BDE87D
:10039000F08F00200146F9E7C10F80EAE0700844C1
:1003A000CA079623002100F0C7B80EB5C10F80EA36
:1003B000E0700844CA07002140F233438DE80E0084
:1003C0000A460B4600F0F5F803B000BD20F00040EF
:1003D000C10DC0F3160040F400007F2901DA0020AF
:1003E0007047962903DCC1F19601C84070479639E1
:1003F0008840704700F0004230F000400AD0C10D44
:1004000001F56071C0F3160042EA0151C2084007CD
:1004100011437047002001467047000030B5041EAC
:1004200071F1000404DB4FF00044404264EB010131
:10043000141E73F1000405DB1C464FF000435242CA
:1004400063EB0403994208BF904230BD01F00043C2
:1004500030B421F0004150EA010206D00A0DA2F5A5
:100460006072C1F31301002A02DC30BC0020704727
:10047000440F44EAC104C100E01830BC00EBC25094
:1004800000F051B8002801DBC0F10040002901DB79
:10049000C1F100418142704730B50B460146002052
:1004A0002022012409E021FA02F59D4205D303FA36
:1004B00002F5491B04FA02F52844151EA2F10102B7
:1004C000F1DC30BD2DE9F05F0546002092469B46E9
:1004D00088460646814640241BE02846414647465A
:1004E000224600F01AFA53465A46C01A914110D3D8
:1004F00011461846224600F001FA2D1A67EB010852
:100500004F4622460120002100F0F8F917EB0009C0
:100510004E41201EA4F10104DFDC484631462A4644
:100520004346BDE8F09F0029A8BF7047401C490022
:1005300008BF20F00100704710B4B0FA80FC00FA48
:100540000CF050EA010404BF10BC704749B1CCF173
:10055000200421FA04F411FA0CF118BF01212143FF
:100560000843A3EB0C01CB1D4FEA00614FEA1020BA
:1005700042BF002010BC704700EBC350104400295C
:10058000A4BF10BC7047401C490008BF20F0010008
:1005900010BC704710B5141E73F1000408DA401C3B
:1005A00041F1000192185B411A4301D120F0010092
:1005B00010BD2DE9F04D92469B4611B1B1FA81F282
:1005C00002E0B0FA80F22032904600F097F904463B
:1005D0000F4640EA0A0041EA0B0153465A460843D7
:1005E00013D0114653EA010019D0C8F14002504619
:1005F00000F093F905460E4650465946424600F033
:100600007DF9084305D0012004E020463946BDE8C5
:10061000F08D0020054346EAE0762C4337430A98E4
:100620006305E40AA0EB08000022FD0A44EA4754EF
:100630000A3002D500200146E9E701051019694199
:10064000DDE9084500196941BDE8F04DA2E72DE953
:10065000FE4F804681EA0300C00F0C46009021F057
:10066000004123F00045B8EB0200A94105D2404605
:10067000214690461C460B46024623F0004010439C
:1006800047D0270DC7F30A00C3F30A510290401A5E
:10069000019040286BDAC3F3130040F4801B0098EC
:1006A000924620B10023D2EB030A63EB0B0B0198B7
:1006B0005946C0F14002504600F020F906460D466A
:1006C00050465946019A00F038F910EB0800614194
:1006D000002487EA115284EAE7731A4340D0009A53
:1006E00062B3019A012A4FEA075215DC001B61EB45
:1006F00002014FF0004202EA0752CDE90042001C1D
:1007000041F5801132462B46FFF753FF03B0BDE899
:10071000F08F40462146F9E7001B61EB0201001C07
:1007200041F5801300185B412018A2F5001747EB34
:10073000030140EAD570B6196D4111E06D084FEA2A
:10074000360645EAC0754FEA0752001B61EB02010D
:10075000001C41F5801149084FEA30000019514151
:1007600032462B4603B0BDE8F04FFFF713BF0098A9
:10077000012240000023D0EB020263EBE0730098FB
:1007800021464FEAE074B8EB000061EB0401E9E7B1
:1007900083F000435BE781F0004158E72DE9F04D1D
:1007A00081EA030404F0004B21F0004514464FF0A9
:1007B000000A23F0004150EA050220D054EA010269
:1007C0001DD0C5F30A570246C5F31303C1F3130046
:1007D000C1F30A5640F4801543F48013A7EB0608D2
:1007E000101BD64608F2FD3873EB050002D308F162
:1007F000010801E092185B41B8F1000F03DA002014
:100800000146BDE8F08D00204FF480110646844675
:100810000EE0171B73EB050705D3121B63EB0503F3
:1008200006434CEA010C49084FEA300092185B413C
:1008300050EA0107EDD152EA030012D082EA040027
:1008400083EA0501084305D0101BAB4106D2012203
:10085000002306E000224FF0004302E06FF00102A7
:1008600053101AEB06004CEB085110EB0A0041EB59
:100870000B01BDE8F04DFFF78DBE70B521F00043D0
:1008800003430CD0C1F30A550024D5EB040564EBF7
:100890000403D617AD1AB34102DB0020014670BD38
:1008A000201841EB025170BDC1F30A52C1F313018C
:1008B00040F2FF3341F480119A4202DA00200146EF
:1008C000704740F233439A42A2F2334202DC524272
:1008D00000F023B800F012B8064C074D06E0E068BF
:1008E00040F0010394E8070098471034AC42F6D377
:1008F000FFF700FC782D0008982D0008202A04DB63
:10090000203A00FA02F1002070479140C2F1200322
:1009100020FA03F3194390407047202A04DB203A61
:1009200021FA02F00021704721FA02F3D040C2F10F
:1009300020029140084319467047202A06DBCB1756
:10094000203A41FA02F043EAE07306E041FA02F38A
:10095000D040C2F120029140084319467047000080
:1009600070B505460C461646284600F067F814B1E7
:10097000012C18D10BE010210E4800F0C8F92021FD
:100980000D4800F0C4F90DA001F0A2F910E010210B
:10099000084800F0BEF92021074800F0BAF909A084
:1009A00001F096F904E0214608A001F091F900BF9A
:1009B00000BF70BD00080140000C0140D5FDD7AA62
:1009C0000A000000B7B4D7AA0A0000004E6F7420D6
:1009D00046616E6452212538640A000008B5012181
:1009E000042000F03BFC1020ADF800008DF803005F
:1009F00003208DF8020069460E4800F0FDF8012141
:100A0000082000F02BFC4FF62370ADF800001020FA
:100A10008DF8030003208DF802006946064800F0B7
:100A2000EBF8012000F00AF84FF40841024800F00A
:100A30006EF908BD00080140000C014010B50446E5
:100A4000042C44D004DC012C07D0022C79D121E005
:100A5000082C59D0102CF9D174E00121494800F03C
:100A600056F90221474800F052F94FF48061454899
:100A700000F04DF94FF48041424800F048F94FF43E
:100A80000051404800F043F94FF480513D4800F0D8
:100A90003EF975E001213B4800F03BF9022139485D
:100AA00000F035F94FF48061364800F030F94FF42A
:100AB0008041344800F02DF94FF40051314800F0E6
:100AC00026F94FF480512F4800F021F958E0012118
:100AD0002C4800F01CF902212A4800F01AF94FF4C2
:100AE0008061284800F013F94FF48041254800F058
:100AF0000EF94FF40051234800F00BF94FF48051E8
:100B0000204800F004F93BE001211E4800F001F903
:100B100002211C4800F0FDF84FF48061194800F0F4
:100B2000F6F84FF48041174800F0F3F84FF4005105
:100B3000144800F0EEF84FF48051124800F0E7F846
:100B40001EE01CE001210F4800F0E3F802210D48EF
:100B500000F0DFF84FF480610A4800F0DAF84FF453
:100B60008041084800F0D5F84FF40051054800F0E6
:100B7000D0F84FF48051034800F0CBF800E000BFFC
:100B800000BF10BD000C014000BFFEE710B54FF0E4
:100B90008040848C002100F038FE204610BD10B546
:100BA00000204FF0804188840121880700F02DFE4D
:100BB00010BD704710B56FF0040000F081FD0A48C9
:100BC00000680A49B0FBF1F009490870084600784E
:100BD00000EB4001C1EBC0104FF6FF7101EAC0000D
:100BE0000449088010BD00000000002000127A00B7
:100BF000780000207A0000202DE9F041024600250F
:100C00000026002000230024002791F803C00CF0E8
:100C10000F0591F803C00CF0100CBCF1000F03D0CD
:100C200091F802C04CEA050591F800C0BCF1000F34
:100C300031D0146800202BE04FF0010C0CFA00F3C7
:100C4000B1F800C00CEA03069E4220D183004FF0A9
:100C50000F0C0CFA03F7BC4305FA03FC4CEA04043E
:100C600091F803C0BCF1280F06D14FF0010C0CFA2B
:100C700000FCC2F814C00AE091F803C0BCF1480FB0
:100C800005D14FF0010C0CFA00FCC2F810C0401C5A
:100C90000828D1D31460B1F800C0BCF1FF0F34DDD7
:100CA000546800202EE000F1080C4FF0010808FA0B
:100CB0000CF3B1F800C00CEA03069E4221D1830078
:100CC0004FF00F0C0CFA03F7BC4305FA03FC4CEA97
:100CD000040491F803C0BCF1280F05D100F1080C01
:100CE00008FA0CF8C2F8148091F803C0BCF1480F60
:100CF00007D100F1080C4FF0010808FA0CF8C2F80F
:100D00001080401C0828CED35460BDE8F0814161BA
:100D100070470161704700BFFEE721B1028842F4CD
:100D20008062028004E002884FF6FF331A4002809E
:100D3000704770B502460024002500230020958AE4
:100D4000138B1B0445EA030626F07F4404EA0106E0
:100D50008E4201D1012000E0002070BD21B1028847
:100D600042F00102028004E002884FF6FE731A404E
:100D70000280704710B504460B48844209D1012116
:100D8000480500F05BFA00214FF4001000F056FA1D
:100D900008E00121880500F051FA00214FF480009D
:100DA00000F04CFA10BD00000054004021B1028850
:100DB00042F48072028004E002884FF6FF631A401A
:100DC0000280704721B1028842F40072028004E080
:100DD00002884FF6FF531A40028070470CB5024656
:100DE000002000230193009300920B0F019321F048
:100DF0007F41019B1BB1009B1433009303E0090C5E
:100E0000009B18330093009B1B680B400BB1012023
:100E100000E000200CBD00002DE9F04385B0044641
:100E20000D460026B1460427DFF8CC80A6884FF691
:100E3000C0700640684600F021FADDF808802F48AF
:100E4000B8FBF0F01FFA80F946EA0906A680208870
:100E50004FF6FE7108402080002629492868884204
:100E60000CD828684000B8FBF0F087B2042F00DAF5
:100E700004273E4309F10100208427E0E8884BF66F
:100E8000FF71884206D1286800EB4000B8FBF0F003
:100E900087B209E0286800EBC00101EB0010B8FB45
:100EA000F0F087B247F48047C7F30B0008B947F06A
:100EB000010747F4004006434FF4967009FB00F029
:100EC0004FF47A7190FBF1F0401C2084A6832088B7
:100ED00040F00100208026884FF6F5300640A888B3
:100EE0006989084306432680A88929890843208107
:100EF00005B0BDE8F083000000127A0040420F0008
:100F0000A08601000146088AC0B2704712B141F0C4
:100F1000010102E04FF6FE73194001827047018221
:100F20007047000010B500F03DFD08A000F0D0FEB5
:100F300001F0C8FD00F016F8FFF73CFEFFF74EFD8C
:100F40000A2000F003FC00F049FC10BD555341524B
:100F500054206973205265616479EFBFBDEFBFBD56
:100F60000A00000070B50024002500BF06E000253F
:100F700000E06D1CB5F57A7FFBDB641CB4F57A7F6D
:100F8000F5DB00216B2000F0CFFD0721192000F0D8
:100F9000CBFD06211A2000F0C7FD01211C2000F026
:100FA000C3FD18211B2000F0BFFD7821232000F095
:100FB000BBFD70BD1CB50446062269463B2000F00F
:100FC00019F89DF801009DF8001040EA012000B2D8
:100FD00020809DF803009DF8021040EA012000B235
:100FE00060809DF805009DF8041040EA012000B2E1
:100FF000A0801CBD70B504460D46164632462146FB
:10100000284600F0D1F970BD1CB504460622694699
:101010004320FFF7EFFF9DF801009DF8001040EA24
:10102000012000B220809DF803009DF8021040EAE4
:10103000012000B260809DF805009DF8041040EA90
:10104000012000B2A0801CBD2DE9F04F8BB082467C
:1010500008A8FFF7D9FF06A8FFF7ACFFBDF92000ED
:1010600035490860BDF9220034490860BDF918000F
:1010700033490860BDF91A0032490860BDF91C0007
:101080003149086031480068FFF7B4F9CDE904013F
:101090002D480068FFF789F906460F462848006882
:1010A000FFF77AF951460190FFF78EF88346FFF774
:1010B000A1F932463B46CDE9020101F0F9FB0446B5
:1010C000DDE90423FFF7F6F88046FFF7BFF9204972
:1010D0000860194909681F4A126801FB02F0FFF70E
:1010E0005BF904461C49FFF7A7F81C4908601C4837
:1010F00001684FF07E50FFF767F806461448016814
:101100003046FFF767F80446164801681348006840
:10111000FFF708F80646124801683046FFF75AF80C
:1011200005462146FEF7FEFF0E49086008460068A6
:101130000BB0BDE8F08F000080000020840000208C
:10114000880000208C000020900000207C000020FF
:101150009C000020AC00002000007A44A400002085
:10116000B00000209400002000BFFEE7704708B5E3
:101170004FF4A06000F046F825208DF80000012013
:101180008DF801008DF802008DF80300684600F02C
:1011900001F808BD70B5002100230F22C47804B304
:1011A000154C246804F4E064C4F5E064210AC1F13C
:1011B0000403CA40447804FA03F1847814402143BC
:1011C00009010E4C0678A155047804F01F0501248E
:1011D000AC4005786D11AD0005F1E025C5F8004182
:1011E00009E0047804F01F050124AC40044D0678A2
:1011F000761145F8264070BD0CED00E000E400E0FB
:1012000080E100E002490143024A1160704700009A
:101210000000FA050CED00E07047000029B1064A15
:10122000D2690243044BDA6104E0034AD269824383
:10123000014BDA61704700000010024029B1064AF4
:1012400012690243044B1A6104E0034A12698243A3
:10125000014B1A61704700000010024029B1064A94
:1012600092690243044B9A6104E0034A9269824303
:10127000014B9A61704700000010024030B5002118
:101280000022002400232D4D6D6805F00C0121B1D2
:10129000042905D0082923D105E0294D056022E065
:1012A000274D05601FE0254D6D6805F47012234D34
:1012B0006D6805F48034022505EB92421CB9214D7E
:1012C000554305600BE01D4D6D6805F400351DB1FB
:1012D0001C4D5543056002E0194D5543056002E081
:1012E000174D056000BF00BF144D6D6805F0F0019B
:1012F0000909154D6B5C0568DD4045600F4D6D6853
:1013000005F4E061090A104D6B5C4568DD408560BD
:101310000A4D6D6805F46051C90A0B4D6B5C456858
:10132000DD40C560054D6D6805F44041890B074DF2
:101330006B5CC568B5FBF3F5056130BD001002407C
:1013400000127A0000093D00140000202400002053
:1013500008B50020009001227521684600F024F8AD
:101360009DF80000682806D09DF8001005A000F048
:10137000AFFCC0B208BD9DF8001006A000F0A8FCAC
:101380000120F7E7E4C60A4552524F522049443A39
:1013900025640A004D505536303530204944203DF3
:1013A0002025780D0A00000070B505460E4614464B
:1013B0004FF480505F4908600AE05E490868411EAA
:1013C0005C4A116020B95CA000F082FCC0B270BD24
:1013D0004FF400315E48FFF701FD0028EDD14FF4D6
:1013E00080505449086001215948FFF7DFFC0AE0AA
:1013F00050490868411E4F4A116020B955A000F0BD
:1014000067FCC0B2E3E759495148FFF792FC002856
:10141000EED04FF48050474908600022D0214C485C
:10142000FFF774FD0AE043490868411E414A116014
:1014300020B94FA000F04CFCC0B2C8E75249444864
:10144000FFF777FC0028EED001214148FFF786FC2A
:1014500031463F48FFF763FD0AE036490868411E00
:10146000344A116020B949A000F032FCC0B2AEE7A6
:101470004549891C3648FFF75CFC0028EDD04FF445
:1014800080502C49086001213148FFF78FFC0AE0A9
:1014900028490868411E274A116020B941A000F080
:1014A00017FCC0B293E731492948FFF742FC0028F6
:1014B000EED04FF480501F4908600122D02124480B
:1014C000FFF724FD0AE01B490868411E194A116014
:1014D00020B93AA000F0FCFBC0B278E72349491CD0
:1014E0001B48FFF726FC0028EDD04FF4805011492F
:1014F000086016E0012C07D100211548FFF70DFC0C
:1015000001211348FFF75EFC18493F311048FFF7EF
:1015100010FC30B10E48FFF7F5FC28706D1C601E02
:1015200084B2002CE6D101210948FFF7F6FB012027
:101530004DE70000700000204932432054696D657A
:101540006F7574206572726F722131310A0000006C
:10155000005400404932432054696D656F75742012
:101560006572726F722131320A00000001000300BF
:101570004932432054696D656F7574206572726FCE
:10158000722131330A0000008200070049324320F3
:1015900054696D656F7574206572726F7221313494
:1015A0000A0000004932432054696D656F7574204C
:1015B0006572726F722131350A0000004932432092
:1015C00054696D656F7574206572726F7221313662
:1015D0000A000000704710B500F002F810BD0000CE
:1015E0000CB50020019000903348006840F4803032
:1015F0003149086000BF3048006800F400300090B6
:101600000198401C0190009818B90198B0F5A06F9E
:10161000F1D12948006800F4003010B10120009099
:1016200001E0002000900098012843D12348006881
:1016300040F01000214908600846006820F00300CF
:1016400008600846006840F0020008601A484068D8
:10165000194948600846406848600846406840F4B8
:10166000806048600846406820F47C104860084666
:10167000406840F4E81048600846006840F0807018
:10168000086000BF0C48006800F000700028F9D026
:101690000948406820F00300074948600846406850
:1016A00040F00200486000BF0348406800F00C00B2
:1016B0000828F9D10CBD00000010024000200240B3
:1016C000042808D14FF0E021096941F004014FF0EE
:1016D000E022116107E04FF0E021096921F00401E7
:1016E0004FF0E022116170477047000010B51348B9
:1016F000006840F001001149086008464068104940
:1017000008400E494860084600680E4908400B49E9
:1017100008600846006820F4802008600846406899
:1017200020F4FE0048604FF41F008860FFF753FF6D
:101730004FF000600449086010BD00000010024036
:101740000000FFF8FFFFF6FE08ED00E010B588B0DE
:10175000044601210420FFF781FD01210220FFF74B
:101760005DFD4020ADF8000018208DF80300032037
:101770008DF8020069461748FFF73EFA1420ADF8CD
:10178000180041F61F40ADF814000020ADF8160017
:10179000ADF81A008DF81C0005A90F4800F098F864
:1017A0006020ADF804000120ADF806000020ADF87F
:1017B0000C00ADF80A4001A9074800F033F80821F1
:1017C000054800F07BF80121034800F01EF808B03E
:1017D00010BD000000080140000400400EB50121CA
:1017E0000846FFF71BFD4FF6FF70ADF804005320CD
:1017F000ADF800000020ADF80200ADF80600694623
:101800004FF0804000F064F80EBD21B1028842F034
:101810000102028004E002884FF6FE731A40028043
:101820007047000070B5002400220023058C4FF69D
:10183000FE7635400584028C8388048B4FF68F75C5
:101840002C40B51E2C400D882C43751E2A400D8956
:101850002A434D882A43144DA8420BD0134DA84269
:1018600008D0134DA84205D0124DA84202D0124D07
:10187000A84213D14FF6F7752A404D892A434FF6F7
:10188000FB752A408D882A434FF6FF652B404FF6A3
:10189000FF552B408D892B43CD892B4383800483B7
:1018A000CD888586028470BD002C01400034014043
:1018B0000040014000440140004801400A46002128
:1018C000018B4FF6F77319401143018370470000F5
:1018D000002202881D4B98420ED01D4B98420BD01F
:1018E000B0F1804F08D01B4B984205D01A4B98425C
:1018F00002D01A4B984204D14FF68F731A404B888E
:101900001A43174B984207D0164B984204D04FF613
:10191000FF431A40CB881A4302808B8883850B884B
:1019200003850A4B98420BD0094B984208D00E4BC6
:10193000984205D00D4B984202D00D4B984201D1F0
:101940000B7A03860123838270470000002C01403C
:10195000003401400004004000080040000C00403A
:1019600000100040001400400040014000440140CD
:101970000048014010B5044600212046FEF782FDD4
:1019800001D2002010BD0120FCE721B1828942F480
:101990000052828104E082894DF6FF731A408281F1
:1019A0007047000000B585B001218803FFF756FCA1
:1019B00001210420FFF752FC4FF40070ADF8100035
:1019C00018208DF8130003208DF8120004A9144884
:1019D000FFF712F904208DF813000002ADF8100093
:1019E00004A90F48FFF708F94FF4E13000900020F8
:1019F000ADF80400ADF80600ADF80800ADF80C0035
:101A00000C20ADF80A006946064800F01BF8FFF705
:101A1000AEFB01210348FFF7B8FF05B000BD000091
:101A2000000801400038014002460020B1F5007F67
:101A300000D100BF13880B400BB1012000E0002053
:101A4000704700002DE9F04786B005460E46002499
:101A5000A24600BFA1460027B08900B100BF2F46B3
:101A60002C8A4CF6FF700440F08804432C82AC8929
:101A70004EF6F3100440B088318908437189084359
:101A80000443AC81AC8A4FF6FF400440B089044364
:101A9000AC8201A8FFF7F2FB1F48874202D1DDF8B4
:101AA00010A001E0DDF80CA0A88900F4004040B1CE
:101AB0000AEBCA0000EB0A1031684900B0FBF1F8EC
:101AC00007E00AEBCA0000EB0A1031688900B0FB9E
:101AD000F1F86420B8FBF0F004012009642101FB57
:101AE0001089A88900F4004040B1322000EBC90001
:101AF000B0FBF1F000F00700044308E0322000EBF7
:101B000009106421B0FBF1F000F00F0004432C81B8
:101B100006B0BDE8F087000000380140C1F30802BC
:101B20008280704700BFFEE770B504460D464FF453
:101B30008050454908600AE043490868411E424A0E
:101B4000116020B941A000F0C3F8C0B270BD4FF4DD
:101B500000314448FFF742F90028EDD14FF480509E
:101B60003949086001213F48FFF720F90AE036496A
:101B70000868411E344A116020B93BA000F0A8F863
:101B8000C0B2E3E73E493748FFF7D3F80028EED06C
:101B90004FF480502C4908600022D0213148FFF7D3
:101BA000B5F90AE028490868411E274A116020B9A2
:101BB00034A000F08DF8C0B2C8E738492948FFF7D3
:101BC000B8F80028EED04FF480501F490860214635
:101BD0002448FFF7A4F90AE01B490868411E1A4A85
:101BE000116020B92EA000F073F8C0B2AEE72B4907
:101BF000891C1C48FFF79DF80028EDD04FF4805059
:101C00001149086029461748FFF789F90AE00E498B
:101C10000868411E0C4A116020B927A000F058F84E
:101C2000C0B293E71D49891C0E48FFF782F80028CF
:101C3000EDD04FF480500449086001210948FFF7B6
:101C4000C1F8012082E700007000002049324320E3
:101C500054696D656F7574206572726F7221310AF7
:101C600000000000005400404932432054696D6573
:101C70006F7574206572726F7221320A0000000065
:101C8000010003004932432054696D656F7574206B
:101C90006572726F7221330A000000008200070033
:101CA0004932432054696D656F7574206572726F97
:101CB0007221340A000000004932432054696D65E6
:101CC0006F7574206572726F7221350A0000000012
:101CD0000FB4054B10B503A9044A029800F040F96F
:101CE00010BC5DF814FB0000A12A0008E4000020ED
:101CF000490050EAC12018BF04204A0D18BF40F027
:101D0000010040F2FF72B2EB515F08BF40F00200E9
:101D1000012808BF052070472DE9F0414F1E00EB58
:101D2000C7010446D1E9000115461E4637F00602F8
:101D30000DD02A463346FEF7BDFA7F1E04EBC703DB
:101D4000D3E90023FEF783FC37F00602F1D1022F1E
:101D500025D0042F13D0062F18BFBDE8F0812A46E6
:101D60003346FEF7A7FAD4E90A23FEF770FC2A46A9
:101D70003346FEF79FFAD4E90823FEF768FC2A46AB
:101D80003346FEF797FAD4E90623FEF760FC2A46AD
:101D90003346FEF78FFAD4E90423FEF758FC2A46AF
:101DA0003346FEF787FAD4E90223FEF750FC2A46B1
:101DB0003346FEF77FFAD4E90023BDE8F041FEF791
:101DC00046BC0122FEF759BDFEF741BC024A002085
:101DD0001107FEF752BD000001FDFFFF02E008C839
:101DE000121F08C1002AFAD170477047002001E095
:101DF00001C1121F002AFBD1704700002DE9FF5FCF
:101E0000DDE90220010DDDF838B0024318D044F6B8
:101E10001050A1F2FF3141430D140F98012820D03A
:101E2000A5EB0B00401C5FEA000A4FF00004474E90
:101E3000DFF81C91A046504616D5CAF1000728E0ED
:101E40000F98012443A2012808D0002100980F9B7D
:101E5000C0E90021C0E90243BDE8FF9F6FEA0B0122
:101E6000F4E7CBF10000DEE7074612E0F80707D001
:101E70002246334640464946FEF71CFA80468946CC
:101E80002246334610461946FEF714FA04460E461B
:101E90007F10002FEAD1DDE90201BAF1000F4246BE
:101EA0004B4602DAFEF706FA01E0FEF777FC04463D
:101EB0000E460022284BFEF7B1FA03D84FF0FF3050
:101EC000014607E00022254B20463146FEF7BFFBC6
:101ED000FEF7EAFC102409E0002C0ADB0A220023AA
:101EE000FEF7F0FA019B30321A55641E50EA0102E7
:101EF000F2D1641C019AC4F1110314440F9A012A0F
:101F000003D0012208430DD10AE0084304D0002089
:101F10004FF0110B0F9080E7A3EB0B056D1E0DE04A
:101F20005B4504DD4FF0000205F1010504E003DA32
:101F30004FF00002A5F10105002AECD000980F999E
:101F4000C0E90231C0E9004586E7000000002440F6
:101F50000000F03F300000000000F0430000E03FD0
:101F60002DE9FF4F95B09B468946064600250FE2B6
:101F7000252877D100242746F84A0121059400E05E
:101F8000044316F8013F203B01FA03F01042F7D159
:101F900030782A2811D06FF02F033078A0F130026A
:101FA000092A16D8059A44F0020402EB820203EBD8
:101FB00042021044761C0590EFE759F8042B059275
:101FC000002A03DA504244F40054059044F002041D
:101FD000761C30782E2816D116F8010F44F0040430
:101FE0002A280DD06FF02F023078A0F13003092B92
:101FF00009D807EB870302EB4303C718761CF3E706
:1020000059F8047B761C30786C280FD006DC4C28FD
:1020100017D068280DD06A2814D104E0742810D095
:102020007A280FD10DE044F400140AE044F480143F
:1020300001E044F440147278824202D104F5801425
:10204000761C761C307866280BD013DC582877D0A5
:1020500009DC002875D04528F6D04628F4D047285A
:102060001AD19DE118E0632835D0642879D065281D
:1020700012D195E1702873D008DC6728F1D0692867
:102080006FD06E280DD06F2806D1B5E073282CD004
:10209000752875D0782874D05A46179990476D1CCA
:1020A00075E1C4F30250022809D003280DD0D9F8F5
:1020B000001004280DD00D6009F1040967E1D9F87A
:1020C0000010EA17C1E90052F6E7D9F800100D80B8
:1020D000F2E70D70F0E719F8041B8DF800100020EE
:1020E0008DF80100EA46012003E059F804AB4FF0F7
:1020F000FF3061074FF0000102D40DE008F101014B
:102100008846B9420FDA8045F8DB1AF80810002932
:10211000F4D108E008F1010188468142FADB1AF89F
:1021200008100029F6D105985B46A0EB0807214668
:102130003846179A00F094FA284400EB080507E0A7
:102140004DE029E10DE01AF8010B5A461799904726
:10215000B8F10108F7D25B4621463846179A13E1D9
:1021600042E00A220092C4F302524FF0000A022A0F
:1021700008D059F804CB032A4FEAEC710AD00DE0DD
:1021800029E02AE009F1070121F00702F2E802C183
:10219000914609E00FFA8CFC4FEAEC71042A03D156
:1021A0004FFA8CFC4FEAEC71002907DA0A4600214D
:1021B000DCF1000C61EB02012D2202E0220504D5C6
:1021C0002B228DF80420012203E0E20701D0202217
:1021D000F7E7904659E00A2102E010220DE01021B5
:1021E0004FF0000A00910BE010224FF0000A44F07B
:1021F00004040827009203E008224FF0000A00922E
:10220000C4F30252022A05D059F804CB0021032A54
:1022100008D009E009F1070121F00702F2E802C144
:10222000914605E01FFA8CFC042A01D10CF0FF0C4A
:102230004FF00008220728D5702806D0009B83F0B5
:10224000100353EA0A0305D00EE040228DF8042063
:10225000012208E05CEA010206D030228DF8042059
:102260008DF8050002229046009B83F0080353EA94
:102270000A030AD15CEA010201D1620705D53022C6
:102280008DF804204FF001087F1E582804D034A098
:1022900003900EA802900DE036A0F9E75346604681
:1022A000009AFEF70FF984460398825C0298401E5C
:1022B000029002705CEA0100F0D1029806A9081AA7
:1022C00000F1200A600702D524F4803400E00127E1
:1022D000574502DDA7EB0A0000E0002000EB0A01F1
:1022E000009005984144401A0590E00306D45B46EF
:1022F0002146179A059800F0B3F90544002706E037
:1023000001A85A46C05D179990476D1C7F1C474530
:10231000F6DBE0030CD55B462146179A059800F0E2
:102320009FF9054404E030205A46179990476D1CE8
:102330000099481E00900029F5DC08E002980299F7
:102340005A460078491C0291179990476D1CBAF1C2
:102350000001AAF1010AF1DC65E100000928010091
:10236000303132333435363738396162636465660B
:1023700000000000303132333435363738394142CD
:10238000434445460000000000F058F90544761C1F
:10239000307800287FF4ECAD19B02846BDE8F08F06
:1023A000620700D4062709F1070222F0070CFCE8B7
:1023B0000223E14603F000485FEA080C02D00FF266
:1023C000702C0DE05FEA045C02D50FF2682C07E088
:1023D0005FEAC47C02D00FF2602C01E0AFF2700C17
:1023E0004FF0FF3823F00043CDF850C065280CD0E3
:1023F00006DC452809D046281DD047283DD13DE0C0
:10240000662818D067287ED138E00021112F01DB23
:10241000112000E0781CCDE9000106A90EA8FFF705
:10242000EDFCDDE90F010E9A03910021009207F106
:10243000010A04914DE04FF000400097CDE90110F2
:1024400006A90EA8FFF7DAFCDDE90F0203920E9B46
:1024500011990022DDF80CA00093049211B9791CA7
:1024600000EB010AB7EB0A0004D4C0F1FF3007F11A
:10247000010A0490AAEB0700019044E0012F00DA62
:1024800001270021112F01DD112000E03846CDE9A0
:10249000000106A90EA8FFF7B1FCDDE90F010E9AB5
:1024A0000391002104910092BA4621070CD40399AC
:1024B000514500DA8A46BAF1010F05DD009AAAF10A
:1024C0000101515C302908D0B84202DA10F1040F42
:1024D00006DA0121CDE9011015E0AAF10101E9E7D1
:1024E000002805DC049901440491AAEB000102E0F4
:1024F000411C514500DD8A460499401A401C019058
:102500004FF000400290200704D40198504501DBB1
:10251000CDF8048000208DF84F0002980DF14F0790
:10252000B0F1004F25D02B200E9002984FF00208FA
:1025300000280CDA404202902D200E9007E00A217C
:102540000298FDF7A9FF3031029007F8011DB8F19C
:102550000001A8F10108F2DC02980028EFD1791EF1
:102560000E980870307800F0200040F0450007F821
:10257000020D12A8C01B00F107081498007800B1E2
:10258000012000EB0A01019801EBE071059841443C
:10259000401A401E0590E00306D45B462146179A78
:1025A000059800F05DF805441498007818B15A4673
:1025B000179990476D1CE00324D55B462146179A76
:1025C000059800F04DF805441CE00498002807DB4E
:1025D000DDE90301884203DD0098405C179901E0C2
:1025E000179930205A469047049805F10105401C80
:1025F00004900198401E019004D12E205A4617994C
:1026000090476D1CBAF10001AAF1010ADDDC05E07A
:1026100017F8010B5A46179990476D1CB8F1000145
:10262000A8F10108F4DC5B462146179A0598ABE651
:102630002D0000002B000000200000002DE9F041DB
:10264000044600251E461746880404D405E0394692
:102650002020B0476D1C641EF9D52846BDE8F081E6
:102660002DE9F041044600251E469046C80301D5D9
:10267000302700E02027880404D505E0414638468D
:10268000B0476D1C641EF9D52846BDE8F0810000F6
:102690002DE9F84F04460D4621F0004000917349A2
:1026A000814211DC7249884201DC06D12CB12046FE
:1026B0002946BDE8F84FFFF784BB6E48002DCCBF1C
:1026C0006D496E49BDE8F88F6D49814211DD6D4954
:1026D0008142D8BF4FF0FF366DDD20462946FFF717
:1026E00007FB042808BFFFF771FB20462946BDE819
:1026F000F88F6549654F25F00045814233DD644917
:10270000814219DD002632464FF08043204629469B
:10271000FDF79DFF80468A46012220462946FEF7A6
:10272000ACF800223B46FEF733F842465346FEF72C
:1027300035F804460D463EE001260022BA463B46E7
:1027400020462946FDF783FF80460F460022534668
:1027500020462946FEF71CF842463B46FEF71EF887
:1027600004460D4627E04B4981421BDDDFF828A1D6
:1027700002260022534620462946FDF79BFD0022F3
:102780003B46FDF764FF80460F4600225346204635
:102790002946FDF7FDFF42463B46FDF7FFFF044695
:1027A0000D4608E0032622462B4600203B49FDF754
:1027B000F5FF04460D4622462B4610461946FDF706
:1027C00079FD8B46824602460B46FDF773FD0746B0
:1027D0000246334888460B4606217844FFF79CFAA8
:1027E00052465B46FDF766FD82462E488B463A46CA
:1027F000434605217844FFF78FFA3A464346FDF7F2
:1028000059FD02460B46002E504659460CDAFDF79C
:102810001EFF22462B46FDF74DFD01B022462B46FA
:10282000BDE8F04FFDF7B7BFFDF711FF22462B467D
:10283000FDF740FD1C4A7A4402EBC603D3E90023AE
:10284000FDF7A6FF22462B46FDF7A2FF174A7A4462
:1028500002EBC603D3E90023FDF79DFF009A002A8F
:10286000B8BF81F00041BDE8F88F000000001044BF
:102870000000F07F182D4454FB21F93FFB21F9BFE4
:102880000000DC3F0000203E0000F33F0000F03F6E
:102890000000E63F008003400000F83F0000F0BF6A
:1028A0006205000020050000BE0400008604000050
:1028B0002DE9F04D9446CCF1000423F000464CEA9B
:1028C0000404524F46EAD4749A46884621F00042E6
:1028D000BC4206D8454240EA050442EAD474BC42F0
:1028E00004D9BDE8F04D6246FFF76EBAAAF1405533
:1028F000A5F17F6555EA0C040BD0022404EAAA7402
:10290000434DDFF810E144EAD87452EA000B04D0DA
:102910000CE0BDE8F04DFFF7BBBE002C14BF012C4E
:10292000BDE8F08D022C30D0032C32D056EA0C0BCF
:102930000AD0BE4220D1BA4209D126F0804622F008
:1029400080423346114617E000291ADB25E0DFF804
:10295000C8B0FB44002C04BFDBE90001BDE8F08DEA
:10296000012C02BFDBE9000181F00041BDE8F08DE0
:10297000022C0AD0032C0CD0BA4212D1B8F1000FAD
:102980000BDA23482549BDE8F08D28462449BDE8E7
:10299000F08D28467146BDE8F08D1D482149BDE8FF
:1029A000F08D921B12153C2AC4BF19481D490EDC3C
:1029B000BAF1000FBEBF12F13C0F0020014606DB4A
:1029C0006246FDF7EBFE21F00041FFF761FE002CAF
:1029D00008BFBDE8F08D012C04BF81F00041BDE8C7
:1029E000F08D114A114B022C07D0FDF7D1FE2A467B
:1029F000BDE8F04D0A4BFDF7CBBEFDF7C9FE2A46F8
:102A0000BDE8F04D064BFDF7C6BE00000000F07FAC
:102A1000182D4454FB2109C01A040000FB21F9BF02
:102A2000FB210940FB21F93F075C143326A6A13C9A
:102A30002DE9F05F0546164801682846FDF7C4FBFE
:102A40000446144801682046FDF7C4FB8146394618
:102A5000FDF768FB074641462046FDF7B5FB834678
:102A60000D4801685846FDF7B5FB814621460B48E5
:102A70000068FDF7AFFB83463946FDF753FB8246FE
:102A80004946FDF74FFB0646A0463046BDE8F09F9D
:102A9000C0000020C8000020CC000020C40000209E
:102AA00070B504460D46E1B20548FFF737F800BFA0
:102AB00080210348FEF7B8FF0028F9D0204670BDFA
:102AC0000038014000B585B001214805FEF7A6FB9E
:102AD00001210820FEF7C2FB1C208DF81300C02046
:102AE000ADF8100003208DF8120004A91148FEF77C
:102AF00083F81148FEF73EF94FF48060ADF80A0004
:102B00000001ADF80C000D4800904BF6FF70ADF8D9
:102B100006000020ADF80400A020ADF80800012157
:102B20000548FEF71BF969460348FEF775F905B03D
:102B300000BD0000000C014000540040801A060057
:102B4000FEF7F0F946A0FFF7C3F8FEF728F8FEF706
:102B5000FFFB47A0FFF7BCF801243CE04848FEF724
:102B600053FA4848FEF726FA4648B0F900004649AD
:102B700008604448B0F90200444908604148B0F98F
:102B80000400434908603E48B0F90000414908602C
:102B90003B48B0F90200404908603948B0F90400E8
:102BA0003E49086038480068FDF7F6FB05463C489A
:102BB00001682846FDF7B6FA3949086033480068CD
:102BC000FDF7EAFB0546374801682846FDF7AAFAF3
:102BD00034490860641CB4F57A7FBFDD324930485F
:102BE0000068FDF729FB2E4908602F492D48006831
:102BF000FDF722FB2B490860FDF7C8FF0746394661
:102C00002AA0FFF765F82AE025480068FEF71CFABD
:102C10002C49086020480068FDF7BEFB05462946A0
:102C200028480068FFF704FF274908600846006845
:102C3000FDF7E0FB05462A460B4624A0FFF748F8BF
:102C400021480068FDF7C2FB06461F480068FEF7F2
:102C500091FEC5B2324629460820FDF781FED3E732
:102C6000496E6974206973205265616479210A0094
:102C700048656C6C6F20576F726C64210A0000000D
:102C8000340000203A0000205000002054000020B2
:102C90005800002044000020480000204C00002084
:102CA000600000206400002000007A44496E6974CE
:102CB000206973204F4B212054696D653A202564AB
:102CC0000A000000280000205C0000205049443A1F
:102CD00025660A00000000004FBB610567ACDD3FC0
:102CE000182D4454FB21E93F9BF681D20B73EF3F33
:102CF000182D4454FB21F93FE2652F227F2B7A3CAB
:102D0000075C143326A6813CBDCBF07A8807703C63
:102D1000075C143326A6913CC4EB98999999C9BFD6
:102D2000711623FEC671BCBF6D9A74AFF2B0B3BF0B
:102D30009AFDDE522DDEADBF2F6C6A2C44B4A2BFCB
:102D40000D5555555555D53FFF8300922449C23F37
:102D50006E204CC5CD45B73F513DD0A0660DB13F6B
:102D6000EB0D76244B7BA93F11DA22E33AAD903F7D
:102D70000000000000000000982D00080000002066
:102D8000E8000000DC1D0008802E0008E80000209C
:102D900000040000EC1D000800A24A04000000002E
:102DA00000000000010203040607080900000000FB
:102DB00001020304010203040607080902040608CD
:102DC0000000000000000000000000000000000003
:102DD00000000000000000000000000000000000F3
:102DE00000000000000000000000000000000000E3
:102DF00000000000000000000000000000000000D3
:102E0000000000000000000000A000000000000022
:102E100000000000E12E65420000000000000000FC
:102E200000000000000000000000000000000000A2
:102E30000000000000000000000000000000000092
:102E400000000000000000000AD7233CFF00000043
:102E5000FF00000001000000000000000000803FB3
:102E60000000803F0000803F0000000000000000E4
:102E70000000000000000000000000000000000052
:04000005080000ED02
:00000001FF
